:020000041101E8
:1070000003B40148019001BDFD11000003B4014823
:10701000019001BD7511000003B40148019001BD4C
:107020001130000003B40148019001BD090E0000B9
:1070300003B40148019001BD53B9000003B40148F5
:10704000019001BD75A9000003B40148019001BD84
:10705000C93E000003B40148019001BD9DA9000094
:1070600003B40148019001BDB30E000003B4014810
:10707000019001BD3D54FF1F03B40148019001BDC3
:107080006189000003B40148019001BD19070100A6
:1070900003B40148019001BDA9D8000003B4014820
:1070A000019001BDB352010003B40148019001BD3C
:1070B0000D52010003B40148019001BD8B52010043
:1070C00003B40148019001BDC1A5000003B401480B
:1070D000019001BD9D6A000003B40148019001BD0B
:1070E000116E000003B40148019001BDE94C01009C
:1070F00003B40148019001BDF97F000003B40148C9
:10710000019001BD7912010003B40148019001BD55
:10711000757A000003B40148019001BD8BB90000ED
:1071200003B40148019001BDD1D4000003B401486B
:10713000019001BD0189000003B40148019001BD27
:10714000C53F000003B40148019001BDC95C0100C6
:1071500003B40148019001BDCD4C010003B40148C6
:10716000019001BD85C1000003B40148019001BD3B
:1071700009B8000003B40148019001BD2DFC0000D6
:1071800003B40148019001BD25E7000003B40148A4
:10719000019001BDEDB8000003B40148019001BDAC
:1071A0003148000003B40148019001BDF5D500004D
:1071B00003B40148019001BDF1FA000003B4014895
:1071C000019001BDED4AFF1F03B40148019001BDCC
:1071D0009946000003B40148019001BD1547000025
:1071E00003B40148019001BDC5F0000003B401489B
:1071F000019001BD79F4000003B40148019001BD84
:1072000063EC000003B40148019001BD05FF0000DC
:1072100003B40148019001BD3161000003B401488D
:10722000019001BD59E4000003B40148019001BD83
:10723000D5E4000003B40148019001BD01BF000086
:1072400003B40148019001BD21F1000003B40148DD
:10725000019001BD39B8000003B40148019001BD9F
:1072600077F1000003B40148019001BDC1E20000C4
:1072700003B40148019001BD154D010003B401485C
:10728000019001BD8DE3000003B40148019001BDF0
:107290005511010003B40148019001BDA5FD000096
:1072A00003B40148019001BD596FFF1F03B40148A9
:1072B000019001BDE9F6000003B40148019001BD51
:1072C00075F8000003B40148019001BD19FA0000EF
:1072D00003B40148019001BD21A9000003B4014895
:1072E000019001BDA93C000003B40148019001BD1B
:1072F0003137FF1F03B40148019001BD313EFF1F2C
:1073000003B40148019001BDADAE000003B40148D3
:10731000019001BD456B010003B40148019001BD1E
:107320003D4B010003B40148019001BDE53A010065
:1073300003B40148019001BD014C010003B40148B0
:10734000019001BDD544010003B40148019001BD85
:10735000810E000003B40148019001BDB544010055
:1073600003B40148019001BD1147010003B4014875
:10737000019001BD5952010003B40148019001BDC3
:107380003522000003B40148019001BD691F0000CF
:1073900003B40148019001BD5D17000003B401482A
:1073A000019001BD5125000003B40148019001BDC9
:1073B000F54E010003B40148019001BD594F010091
:1073C00003B40148019001BD434D010003B40148DD
:1073D000019001BD8D12000003B40148019001BD70
:1073E0004D1F000003B40148019001BD552200006B
:1073F00003B40148019001BDDD52010003B401480E
:10740000019001BD1D4D010003B40148019001BD73
:10741000017F000003B40148019001BDE1170000A5
:1074200003B40148019001BD7918000003B401487C
:10743000019001BDD949010003B40148019001BD8B
:10744000E928000003B40148019001BD554901003D
:1074500003B40148019001BDF30E000003B40148DC
:10746000019001BDB30E000003B40148019001BDBD
:10747000B93FFF1F03B40148019001BD810E000018
:1074800003B40148019001BD7319FF1F03B4014803
:10749000019001BD4551010003B40148019001BDB7
:1074A0006119FF1F03B40148019001BDC90E00001E
:1074B00003B40148019001BD591BFF1F03B40148EB
:1074C000019001BD291CFF1F03B40148019001BDBB
:1074D000591DFF1F03B40148019001BDF519FF1F9D
:1074E00003B40148019001BD191DFF1F03B40148F9
:1074F000019001BD9319FF1F03B40148019001BD24
:10750000ED4A010003B40148019001BDA54F0100FF
:1075100003B40148019001BD8552010003B4014844
:10752000019001BD2530FF1F03B40148019001BD4A
:107530001DBC000003B40148019001BD6DBC0000FA
:1075400003B40148019001BDE542FF1F03B40148A7
:10755000019001BD3542FF1F03B40148019001BDF8
:10756000092AFF1F03B40148019001BD412AFF1FF2
:1075700003B40148019001BD7543FF1F03B40148E6
:10758000019001BD55B5000003B40148019001BD53
:10759000412BFF1F03B40148019001BD432BFF1F86
:1075A00003B40148019001BD8D42FF1F03B401489F
:1075B000019001BD055E000003B40148019001BDCA
:1075C000CD29FF1F03B40148019001BDB129FF1F60
:1075D00003B40148019001BDDD2AFF1F03B4014837
:1075E000019001BDE548000003B40148019001BDD0
:1075F0004949010003B40148019001BD311A00005E
:1076000003B40148019001BD9928000003B401486A
:10761000019001BD291C000003B40148019001BD87
:107620001922000003B40148019001BD851F00002C
:1076300003B40148019001BD5147010003B4014862
:10764000019001BDA946010003B40148019001BDAC
:10765000E526FF1F03B40148019001BD3127FF1F3C
:1076600003B40148019001BDDD43FF1F03B401488D
:10767000019001BDE9AF000003B40148019001BDD4
:10768000894A010003B40148019001BD2B29FF1F65
:1076900003B40148019001BD0529FF1F03B401484F
:1076A000019001BDC946FF1F03B40148019001BD0F
:1076B000156B010003B40148019001BDA50E000047
:1076C00003B40148019001BD0D3FFF1F03B4014801
:1076D000019001BD6D40FF1F03B40148019001BD41
:1076E000113EFF1F03B40148019001BD0B0D0000C6
:1076F00003B40148019001BD030D000003B401482B
:10770000019001BD2951010003B40148019001BD60
:10771000D1A50000FEB508AF70CF6F4670C700F06E
:1077200019F80249FFF76CFC0020FEBD1320000091
:1077300008B5002802D000F06FFA00E01220694678
:1077400008706A4601210248FFF760FC002008BD6E
:1077500005200000FFB50446354F0001C0198079AF
:1077600081B01546022802D00C2005B0F0BD314A88
:10777000881F90422ED2062D2CD3501D854229D829
:107780008D4227D3FF220499F432914222D80A99DC
:107790000A291FD381421DD82046FFF73DFC00284F
:1077A000E3D1A120800044432348006826183446D2
:1077B0008034E07B002802D0E07A00280CD0207DC5
:1077C000012809D00A98C1000498401C6843400071
:1077D000814203D81220C8E73A20C6E77878174FCD
:1077E00001280AD96804B988000C884203D3FFF73E
:1077F00019FC002909D03B20B7E7BD80F08E104965
:1078000040000978FFF70EFCF86002202076002087
:107810006083308F0021C01DE082A5830498E0833F
:107820000A9820843046FFF703FC00209DE7000003
:10783000300DFF1F7B0C00003409FF1F300EFF1FAF
:107840001409FF1F70B50C460546FFF7F7FB2146EC
:107850002846FFF7F9FB0446FFF7FCFB204670BD06
:10786000FEB5089D099C1746002874D0002972D0E7
:10787000002C02D0012C02D003E02A2201E0FF22DA
:107880000732921D0192354A0E461770344A106035
:10789000344803703448057034480470002446E0CE
:1078A000A1208000254645432D48A121006889007C
:1078B0002818FFF7D5FB2A482D49006862002818D0
:1078C000FF308130C6620198361800208854511864
:1078D00048702649097800293BD0FF2111310091D9
:1078E00021461C2041432248002220300D182A76D0
:1078F0004254E0B20099FFF7B9FB6860002028729B
:10790000E0B201220099FFF7B1FBE8600020287483
:10791000E0B202220099FFF7A9FB686169680029BB
:1079200019D0E968002916D0002814D0641CBC4284
:10793000B6DB00200F4D104A014683009C1865807D
:10794000401CD154C0B261701028F6D30020FEBD97
:1079500001E03421C3E71220F9E700001409FF1FFA
:107960003409FF1F1509FF1F1609FF1F1709FF1F05
:10797000A8DCFF1FFFFF000088DEFF1FF8B5714D78
:107980000028AA7916D0012A01D0032A12D16E4903
:107990000B78FF2B0ED14B78FF2B0BD18B78FF2B65
:1079A00008D1CB78FF2B05D10B79FF2B02D1497978
:1079B000FF2930D065490B78012B1DD00026644C7F
:1079C0000E702178092931D00A292FD00B292DD00A
:1079D0000C292BD00D2929D0052927D0062925D0FF
:1079E000A97B00290AD0012908D0032906D0022941
:1079F00004D004290FD101E00C20F8BD002A05D0E5
:107A0000012A03D0022A01D0032A04D1514F0028B1
:107A100075D0012801D01220F8BDA888012805D012
:107A2000FFF70CFB2078002802D01AE02120F8BDD7
:107A3000A87B0300FFF720FB050408100C082400B6
:107A4000012020701F200AE002202070202006E084
:107A500004202070222002E0032020702120FFF764
:107A600011FB2078282101280DD002280BD00428F2
:107A700009D0032807D007280ED008280CD01BE017
:107A800026701E20EBE7344806602975FFF700FBDF
:107A9000002820D0AE800FE03048C068808D80067E
:107AA0000AD52F480278002A06D1AA7B032A06D0DD
:107AB000022A04D0002A02D0FFF7CCFAB6E702224D
:107AC00002702975140321463878FFF7E7FA21463A
:107AD0003878FFF7E9FA0120A880224800780028CA
:107AE00009D02148012102887D20C0004243C903FA
:107AF0003878FFF7DFFAFFF7ADFA20E0FFE7FFF78E
:107B00009DFAAE802078072808D0082806D0267075
:107B10001648FFF7D5FA1E20FFF7B4FA104801788F
:107B2000002905D00670012149033878FFF7B6FA1D
:107B3000FFF790FA0121C9033878FFF7AFFA002068
:107B4000F8BD0000A60BFF1F6B09FF1F1A09FF1FDE
:107B50001C09FF1F1B09FF1F4809FF1FD484FF1FBB
:107B60002309FF1F2109FF1F2C09FF1F00100040E0
:107B7000FFB585B016460D460446119FFFF75EFA25
:107B800015482946007804902046202C00D2202059
:107B9000202900D220210EAA2CCA009201AAA8C234
:107BA0003246089BFFF792FA05460C480A49448082
:107BB00004980870012E01D0042E08D108488023B3
:107BC0000078C101074882889A4311438180FFF7FA
:107BD00041FA284609B0F0BD1C09FF1FA60BFF1F84
:107BE0007809FF1F6C11FF1F10B5FB2908D8084B3F
:107BF0009A4205D81B2903D3FF2349339A4201D265
:107C0000302010BD034B19825A82FFF765FA10BD70
:107C1000480800008410FF1FF8B53249097801298F
:107C20002AD0022928D0032926D0042924D00529C6
:107C300022D0062920D02C49097802291CD00429F9
:107C40001AD0012918D0032916D0062914D00729E3
:107C500012D00178254C8C46217046786670837866
:107C6000A370C278E270017921714079204D607172
:107C7000AF79012F02D008E00C20F8BD6746EF7104
:107C80002E726B72AA72E97228730622E91D1948D6
:107C9000FFF728FA0622E91D1748FFF723FA1748CD
:107CA000017801290BD12178417061788170A17828
:107CB000C170E17801712179417161798171104858
:107CC000017801290BD12178417061788170A17808
:107CD000C170E17801712179417161798171002070
:107CE000F8BD00001C09FF1F2309FF1F6B09FF1FC0
:107CF000A60BFF1F7211FF1F8A13FF1FBC0BFF1F74
:107D0000D40BFF1FF8B5844657480F460178012968
:107D100014D00026554D06702878092838D00A2836
:107D200036D00B2834D00C2832D00D2830D0504C0F
:107D3000607A002804D001284BD101E00C20F8BD66
:107D40002078002805D0012803D0022801D003287C
:107D50003FD162894748111F81423AD2A1890B1F46
:107D6000834236D2914234D8002F01D0012F30D136
:107D7000604600284FD001282BD1207A012807D057
:107D8000FFF75CF92078012804D0032802D014E022
:107D90002120F8BD38480178FF290ED14178FF290C
:107DA0000BD18178FF2908D1C178FF2905D101794C
:107DB000FF2902D14079FF2809D028782521012602
:107DC000002808D007280ED008280CD014E0FFF7B0
:107DD00041F91220F8BDE671E773A17405202870FF
:107DE000FFF786F913E02548C068808D400603D56B
:107DF00023480278002A02D0FFF72CF9C8E7A174C3
:107E000006702048012109030078FFF74DF926721A
:107E1000FFF720F925E0FFF711F92878052804D0AD
:107E200007280AD0082808D00FE02E701648FFF760
:107E300047F91E20FFF726F907E0114801210670D7
:107E4000104809030078FFF729F926725820FFF738
:107E500055F90A480670FFF7FDF80C48016801293A
:107E6000FCD00020F8BD00001909FF1F1C09FF1FEE
:107E7000BC0BFF1FFD3F00006B09FF1FD484FF1FD9
:107E80002309FF1F1B09FF1F001000409809FF1F57
:107E900038B51C46049B00932346FFF735F90028AC
:107EA00012D10B49002C0C700FD0022C0DD0094AB6
:107EB00013784B7053788B709378CB70D3780B71A9
:107EC00013794B7152798A7138BD034AF0E700008B
:107ED000BC0BFF1F6B09FF1F6509FF1FFFB50D4698
:107EE000A12189004843234981B009681E464418EE
:107EF000002D09D0FF20D930015B0398814203D3C4
:107F0000002E04D0012E02D0122005B0F0BDE07882
:107F100000280AD00520C00127181748F9780078F2
:107F2000801C814203D30720EFE70220EDE7FFF733
:107F300085F8F878A91E401CF87003980870002E88
:107F400010D00120487020467C30091FFFF7E2F86E
:107F5000FFF780F809480078082805D0072803D0E3
:107F60000020D2E70220EDE700212046FFF7D8F8F5
:107F7000F6E700003409FF1F1509FF1F1C09FF1F4A
:107F8000F8B50F4E307A002818D10E4CE0690E4F2C
:107F9000C005C50F02D1E0693843E06104210B48F8
:107FA00000F016F809480421103000F011F8002DF7
:107FB00002D1E069B843E06101203072F8BD0000F1
:107FC000D484FF1F00F0004000010000C8DEFF1F46
:107FD000F3B50746104881B0C169104A1140FF311E
:107FE0000931C161002613E000252C461120FFF75E
:107FF0009DF80948406A8007800F61008840284347
:10800000641CE4B20546102CF0D301C7761CF6B20E
:1080100002988642E8D3FEBD40F0004000FEFEFF1D
:10802000F0B500248BB00D460646102902D9012078
:108030000BB0F0BDFFF7A4FF1F4900200A5C401CF5
:108040001419C0B21028F9D3002C03D0102D03D975
:108050000B20EDE70E20EBE71848174C00230068D3
:1080600002A91034E25CC75C7A40CA545B1CDBB2E4
:10807000102BF7D306AA1048FFF75EF8102D00D991
:1080800010252A4606A93046FFF72CF8FFF75AF8C4
:10809000216840182060FFF755F86168401860605B
:1080A000FFF750F8A1684018A060FFF74BF8E168AF
:1080B0004018E0600020BBE7C8DEFF1F6085FF1F9F
:1080C00070B50446FF30FF300230406F0D46012886
:1080D00012D1282D10D1A420005BE188401A1D493F
:1080E00080B2884208D321466A3105220E46481FD5
:1080F000FFF72EF8002818D01749002082005218E8
:108100005278002A16D0401CC0B21028F6D313486B
:10811000012189020078FEF7C7FF2079010110488C
:108120000918897902290DD00FE031462046FFF762
:1081300015F870BD80002379421853800D5401203A
:108140005070E4E74178491E41702046FFF70CF873
:1081500070BD0000FF7F000088DEFF1F1B09FF1FAE
:10816000300DFF1FF0B5054687B0E030049028467B
:10817000A030039040380590092080012E46281831
:10818000FF36E136029030462030EF1DF9372C469D
:10819000803401909FE1E07A801E0300FEF76CFFBF
:1081A0001A0E3822396BF638C13892D1A9383838CE
:1081B000383838F5F4F3F23838F1F038A07A01287D
:1081C00003D02846FEF7D6FF12E0C5488078002885
:1081D00001D0162130E1608A401E0004000C60824C
:1081E0006FD076E1A07A012804D02846FEF7C8FFB8
:1081F000A0726EE1BA48C0780028ECD02846FEF79D
:10820000C5FF2A4629462879C832C031FEF7C4FF87
:1082100061E1A07A012813D00498C07D012821D003
:108220000498007E00287BD02A4629462846D7326B
:10823000B031E730FEF780FF04990120C8754AE1AC
:10824000A748C078002805D0039901208871002034
:10825000E0673860B8790128BDD106212846FEF7CD
:10826000A1FF38E12846FEF7A3FF0128B9D100207D
:10827000B8710120BCE7A07A012803D02846FEF798
:108280009DFFB5E79648C0780028A4D0E88C6884A4
:108290002846FEF77BFF05990120C87620713879C2
:1082A0000128287909D001220021FEF78DFF002046
:1082B00038713872F871B8710DE10021FEF78AFF4C
:1082C000F5E7B8E0A07A012805D02846FEF788FF38
:1082D000012807D0FDE0F8790128BDD12846FEF736
:1082E00055FFF8E00020F871039988710120A07211
:1082F000F1E0A07A012804D079792846FEF776FFCC
:1083000076E77748C178002906D0039A0021917159
:10831000059A0121D176217180780028DED15AE7B3
:108320008EE0A07A012803D02846FEF765FF5FE7BC
:108330006B48C0780028F2D001203873E88C68843C
:10834000CCE7A07A012805D00120F8752846FEF771
:1083500059FF4DE7787D012806D0608A401E000451
:10836000000C608213D0B4E0B87D0128B6D1B88B80
:1083700000907B8B3A7E29790020FEF749FFADE71C
:108380008FE072E03BE02DE01BE009E09CE0B88B61
:1083900000907B8B3A7E29792220FEF739FF4AE054
:1083A000A07A012806D02846FEF738FFA0720020E8
:1083B00070748EE04A48C0780028B0D001207074F4
:1083C0008CE7A07A012803D02846FEF72DFF0FE79F
:1083D0004348C0780028A2D0002030742879FEF7E6
:1083E00029FF7BE7A07A012803D02846FEF728FF63
:1083F00036E03B48C078002891D0012018E0A07AF0
:10840000012807D0707FB17F08401BD041071DD5E0
:10841000042020E03248C07800288CD00199002048
:10842000C871019A012111722E490979012987D158
:108430000199087252E722212846FEF707FF012022
:1084400007B0F0BD707E7075B07E05E0800701D585
:10845000022000E001207075B0752846FEF7FCFE92
:10846000A07201990020087233E0A07A012807D099
:108470002846FEF7F7FEA07202990120087628E050
:108480001748C07800289BD1608A401E0004000C69
:1084900060821ED11448042200212818FEF7E8FE4D
:1084A000C9E7A07A012803D02846FEF7E7FE9FE639
:1084B0000B48C07800280ED0029900200876029957
:1084C000C875FEF7E1FE09E72846FEF7E3FE01283E
:1084D00087D00020B4E7E07B002800D05BE6AFE760
:1084E000E010FF1FD484FF1F5602000070B51F4824
:1084F000012201781E4D002915D01E48A121807847
:10850000890048431C491D4C096822704618207890
:10851000FEF7C6FEA87B00281AD003281BD002282D
:108520001CD0002070BDA97B002904D0032904D0F1
:10853000022904D005E0027003E0042100E00321D9
:108540000170FEF7A5FD0E4900200870012070BDE6
:10855000FEF7ACFE04E0FEF7AFFE01E0FEF7B2FE70
:10856000FF36FF360236317B217070BD1C09FF1FBC
:10857000A60BFF1F300DFF1F3409FF1F490AFF1F05
:108580002309FF1F0D480C4901600D4981600B490B
:108590000C4A4031CA610C4A4A610C4AC2620C4A18
:1085A00082630C4A8A600C4A42630D4A0B4810628F
:1085B0000C48886170470000717B01114000FF1F6B
:1085C0007D790111A949FF1F6169FF1FBD49FF1F87
:1085D000BD47FF1FC1800111658101110D4CFF1FB7
:1085E0000002FF1F0531FF1F10B50B48007801285E
:1085F0000ED004280CD0094900200C224243521806
:108600005278012A06D0401C0A28F6DB012010BD52
:10861000FEF75EFE002010BD2077FF1FBCB0FF1FDD
:1086200070471CB50124214601A802F021FD6846CF
:1086300004F098FF002016F0FDFA012003F028F95D
:1086400020461CBD70B5FEF7F9FC904C0020256853
:108650002060FEF743FE06462560FEF7FBFC304631
:1086600070BD8B49C968FF31813188657047F8B5A5
:10867000FEF73AFE864D874A68721178022903D9BF
:10868000002801D101201070834900200446E960D0
:108690008300401CCC50FF28FADDE8687F4988231E
:1086A00019507F49C1627F490978002902D07C496D
:1086B0001131C1620A210165117881637A49C16172
:1086C000FEF718FEE9687948486119208001886141
:1086D000084637228030C260082336220B64CA6302
:1086E0001E224A6436224260322202603B22036428
:1086F000C263282242644122C26439228264322247
:108700004365026528228265022202664222C26512
:108710001E22836642662822C266202242674222C7
:1087200002675A22436102613C228261192292014E
:108730000A605F4A0A63FF222D328A60CA60FF2204
:10874000F5320A615B4A8A647D22D2005A4EC267C2
:10875000CE644A62594A8A623222CA6506224A6552
:108760008A65CA1DF932022513604D664B25ED005E
:108770008D660925CD66524D0D678C674B67AB1032
:10878000CB67504FFF313E604A4E86627D26F60031
:108790008667642646620526C66202260663C826E8
:1087A0004663846338205060474810644B20800142
:1087B0009061B000D061581010627D2000015062BD
:1087C000D466956513665364D565146753671E2098
:1087D00090663E4890673E485B008131D0670B60F1
:1087E0008B604860FF20F530C86008614B20C000F6
:1087F00010630E6538483749274A81603749803A07
:1088000011613549364A80318A62364ACA62364A2F
:108810008261364AC262364A02632F4A3548403A7C
:1088200050633548D0633548C861354890632A495C
:108830003448403188613549334888602648344996
:10884000803841603349244A41633349C03AD1609A
:108850003349324B204CCB63324B403C2363324B89
:108860009362324AC263324AC260324A4A63324A2F
:10887000E260324A8A63324A0A6332498163FEF710
:108880003FFD0120FEF742FDF8BD00009809FF1FE3
:10889000D484FF1F4A0AFF1F0004FF1F30EFFF1F91
:1088A0006E040000E476FF1F3A07000080C3C90190
:1088B0009A02000050C30000280A00006A18000055
:1088C000204E0000F009FF1F00400011DC050000F1
:1088D00040420F001150FF1F0001FF1F692EFF1FB4
:1088E000856CFF1F596FFF1F752BFF1F092DFF1F81
:1088F000912BFF1F413DFF1F313BFF1F7574FF1F71
:108900006172FF1F8529FF1FE97B01110002FF1F14
:108910003548FF1F954DFF1FBD30FF1F45780111E2
:108920000000FF1F216AFF1F2D4BFF1F6153FF1F18
:10893000654BFF1FA530FF1F8948FF1FDD7E01111A
:108940005130FF1F5D67FF1F0149486070470000FD
:10895000707DFF1F0A7802708A7842704A88120A76
:1089600082700979C170042070470A780270098802
:10897000090A417002207047097801700120704790
:1089800070B50C46097801702188C51C090A417030
:10899000A17881706088611D000A28706D1C2279A1
:1089A0002846FEF79FFB20792146401922890A318B
:1089B000FEF798FB207921894018001D80B270BD18
:1089C00010B500220EE093005B189C7804705C8860
:1089D000521C240A44701C7984709B88D2B21B0AF2
:1089E000C370001D0B789342EDD81806800D10BDA2
:1089F0000A7802700A88120A42708A78827049885E
:108A0000090AC17004207047F8B50D46064649783A
:108A1000012031700024761C16E06978012917D0F6
:108A20001221614349198A7832704A88871C120AD8
:108A30007270B61C10223046091DFEF753FB10372A
:108A4000B8B21036641CE4B22978A142E5D8F8BD6A
:108A5000A10049198A7832704A88871C120A7270FC
:108A6000B61C02223046091DFEF73CFBBF1CB8B203
:108A7000B61CE7E710B50C46097801702188090A91
:108A800041706288211D801CFEF72CFB6088801CD1
:108A900080B210BD10B50C46097801702188090A12
:108AA0004170A17881706188090AC170A288A11DF6
:108AB000001DFEF717FBA088001D80B210BD10B589
:108AC0000C46097801702188090A4170A1788170EB
:108AD0006188090AC170A288A11D001DFEF702FB72
:108AE000A088001D80B210BD0A7802700A88120AA0
:108AF00042708A7882704988090AC17004207047E0
:108B000010B50C460A88891CFEF7ECFA208810BDC7
:108B100010B50B788A7802705343DCB22246401CB1
:108B2000091DFEF7DFFA601C10BD10B50C46097870
:108B300001702188090A4170A17881706188090A51
:108B4000C1702279611D001DFEF7CCFA2079001D4D
:108B500010BD10B50B788A7802705343DCB2224600
:108B6000401C091DFEF7BEFA601C10BD10B50C4676
:108B70000A88891CFEF7B6FA208810BD10B50C468D
:108B80000A88891CFEF7AEFA208810BD7FB515460D
:108B90000446022901D0102903D1022B04D0102B46
:108BA00002D0002004B070BD994202D10A46294685
:108BB00007E01029694607D000F00EF81022694638
:108BC0002846FEF7C5FAEDE7104600F005F810223A
:108BD00069462046F5E7000070B50C4605000CD04C
:108BE000002C0AD0102206492046FEF77BFA28788E
:108BF000207368786073012070BD002070BD000094
:108C0000342B031110B50B460122024908F06EFD0A
:108C100010BD00005589011170B5064608880C4644
:108C2000172812D30B4603220949304608F05EFD8F
:108C3000050008D1074920880988884200D20146EA
:108C4000304600F0A3FA284670BD022070BD000037
:108C50006B890111F483FF1F10B50B4618220249DE
:108C600008F044FD10BD00007989011110B5002302
:108C70001922194608F03AFD10BD000010B50A7916
:108C8000022A01D0022010BD0B460622014908F03D
:108C90002DFD10BD8189011110B50A78002A05D07B
:108CA0000B460722024908F021FD10BD022010BD2D
:108CB000C189011110B50B460422024908F016FDC6
:108CC00010BD0000F189011110B54A78012A01D0C8
:108CD000022A08D10A78002A05D00B46052203494A
:108CE00008F004FD10BD022010BD0000098A01112A
:108CF000024940008968085A70470000E883FF1F56
:108D000010B500231E22194608F0F0FC10BD00002B
:108D100010B50B461B22024908F0E8FC10BD00000C
:108D2000758A011110B50649002089681723054A84
:108D300002E044000B53401C1478A042F9DB10BD44
:108D4000E883FF1FC884FF1F042901D00420704757
:108D500001781170837841781B02C9185180C0785E
:108D60001071002070470098022B01D0042070473A
:108D700011785278120289180180002070470098FB
:108D8000012B01D00420704711780170002070473A
:108D9000002901D0042070470020704770B5049C62
:108DA0001E461546062B1BD3697828780902401801
:108DB0002080E978A8780902401860800222227198
:108DC000291D601DFEF78EF9B61FB2B22281F02A6E
:108DD00006D82046A91D0A30FEF784F9002070BD90
:108DE000042070BD0098042B01D0042070475378F4
:108DF00011781B02C91801809178D2781202891863
:108E0000418000207047F7B504271646002937D067
:108E1000491EC8B200990D78012D02D0022D07D04D
:108E20002EE081072CD18408601E042809D927E090
:108E30001221FEF7F7F8002922D1040020D0012CDE
:108E40001ED875700027009834703D46401C15E010
:108E5000717842780129017814D0120289181222FF
:108E60006A4393195980801C0090181D10220099A4
:108E7000FEF738F9009810306D1CEDB2A542E7D32B
:108E80003846FEBD12028918AA0093195980801C29
:108E90000090181D02220099FEF724F90098801C0A
:108EA000EAE710B502981146022B0FD34C780A78E6
:108EB0002402121902809B1E9AB24280F42A05D81D
:108EC000001D891CFEF70EF9002010BD042010BD06
:108ED000F8B584890D460646002C26D0B26817786E
:108EE000380620D50C2C20D90C3CA4B210190090C7
:108EF00001217088234605F000FA002811D00220D5
:108F000028707806C00F6870B806800EA870641EBE
:108F10002004000CA88001D0B068401CA86000208C
:108F2000F8BD0120ECE70020EAE70120F8BD10B50C
:108F300002981146042B14D34C780A782402121993
:108F40000280CC788A782402121942801B1F9AB2C0
:108F50008280F22A05D8801D091DFEF7C3F8002083
:108F600010BD042010BD0098042B01D004207047D0
:108F7000537811781B02C91801809178D2781202B7
:108F8000891841800020704710B502981146062BC1
:108F900003D0142B03D0042010BD022200E01022C5
:108FA00002714B780A781B02D2180280CB788A783B
:108FB0001B02D21842800279401D091DFEF792F86B
:108FC000002010BD70B50546144603290CD3491E78
:108FD000CEB229786180F52E06D8002904D030461B
:108FE000FEF720F8002901D0042070BD2070324621
:108FF000691C201DFEF776F8002070BD30B5039C7B
:10900000D80718D1D805010E022914D30B4880883F
:10901000814210D8F6200155002008E055781378D9
:109020002D025B194500401C6353C0B2921C88425C
:10903000F4D3002030BD042030BD0000E883FF1FC2
:109040000098022B01D00420704711785278120248
:10905000891801800020704770B5144602460498B4
:10906000022B18D3667825783602AD19058005469F
:10907000E0352A766976002A0BD0E8219B1E9AB249
:1090800042808A4207D8A11C001DFEF72BF8002061
:1090900070BDF421F2E7042070BD000010B50B464E
:1090A0001622024908F022FB10BD0000958A01112A
:1090B00010B50B461722024908F018FB10BD00003E
:1090C000BF8A011110B50B460C22024908F00EFBB5
:1090D00010BD0000E98A011110B50B460D220249AE
:1090E00008F004FB10BD0000018B011110B50A79D6
:1090F000102A03D0022A01D0022010BD0B461022F4
:10910000014908F0F3FA10BD2B8B011110B50A7854
:10911000002A05D00B461122024908F0E7FA10BDDB
:10912000022010BD118B011110B50A79102A03D04D
:10913000022A01D0022010BD0B460822014908F086
:10914000D5FA10BD2B8B011110B50A78002A05D075
:109150000B460922024908F0C9FA10BD022010BDD1
:10916000538B011110B50B460F22024908F0BEFACD
:1091700010BD00006D8B011110B50B460B2202498A
:1091800008F0B4FA10BD00007D8B0111034A13886A
:10919000994202D89268400011527047E883FF1F3D
:1091A00010B500231322194608F0A0FA10BD0000E4
:1091B000014610B502481322407800F083FC10BD30
:1091C000B079FF1F70B50A4D0100687803D00949D6
:1091D00000F054FB01E000F00FFB040005D1012179
:1091E000054A49036878FDF765FF204670BD000019
:1091F000B079FF1F14B6FF1F1027000070B5054699
:109200001C461646082000F04DFC3146092000F0AF
:1092100049FC0021084600F045FC06480721017280
:1092200005704472002141700622801CFEF720F870
:10923000002070BD14B6FF1F0B46014610B5034851
:10924000D2B2407800F07EFC10BD0000B079FF1F64
:1092500070B50F4D00280BD028460C3000F07EFA78
:10926000040013D1287004216878FDF71DFF0DE07C
:10927000687800F057FA040001D0122C06D10120C2
:1092800028704103034A6878FDF714FF204670BD3B
:10929000B079FF1F10270000F8B50E4605461C46A2
:1092A00017461146112000F0FDFB3146102000F05A
:1092B000F9FB0021232000F0F5FB7D21C9000220ED
:1092C00000F0F0FB31460C2000F0ECFB39460D209D
:1092D00000F0E8FB054903208D7048700846CC700B
:1092E0000C38407808700020F8BD0000BC79FF1FE2
:1092F00001498870704700004077FF1F70B5174D17
:109300000C46A978814227D1E00703D00FF042FF35
:1093100001201FE060071FD51148016AC06915F0E0
:1093200025FE00280BD00F48C068C0B2102803D813
:109330000D480068022805D00CA00CF0AFF80FF023
:10934000FFFE06E00FF0D2FF01221146A878FDF7DC
:10935000B1FE0420604070BD002070BD4077FF1F4B
:10936000E4B1FF1FC0F00040800AFF1F6E6F206352
:109370006865636B206B65790D0A000010B5034AC0
:109380001321034800F0F4FD10BD00008C230311ED
:109390008C77FF1F70B5044680B2FDF7BDFF050056
:1093A00009D1214605A0FDF7BDFF0EA0FDF7BAFFCC
:1093B0000D480020C046284670BD00004D656D6F09
:1093C000727920416C6C6F636174696F6E204661C5
:1093D000696C6564212C2073697A65203D202564C1
:1093E000200000000D0A0000247AFF1F0549032019
:1093F0000870011F044A00208300401CD15010282F
:10940000FAD37047287AFF1F88B6FF1F0FB40246B1
:1094100010B50B4803780020C0439A420CD80B0FBC
:109420001A074A409900074B59588A4304D105A9A5
:10943000049806F0CFFE002010BC08BC04B018470A
:10944000287AFF1F88B6FF1F10B5FDF771FF10BD0A
:1094500070470000032801D80149087070470000D8
:10946000287AFF1F70470000FFB593B015460F46DE
:1094700006461C9CFDF7E2FDFDF760FFFDF7EAFDE7
:10948000002E0CD0002D0DD0002C16D0202C0FD982
:109490002046FFF77FFF002807D0029009E012481E
:1094A00017B0F0BD1048401CFAE70F480C38F7E73A
:1094B00004A822461699FDF747FF10A801950480DD
:1094C00068460C9717F0CEF9040008D010A8008861
:1094D000202802D90298FFF7B7FF2046E0E7684648
:1094E000007830700020DBE711C00000F8B50646B8
:1094F00000780A2803D3FF2030701948F8BD4821AE
:1095000048431949174F45182A464032D0780090F1
:109510003C46284617F05EFA00281FD1D0780F216C
:10952000FDF780FD01228A4091B2104A127880181E
:10953000C0B2FDF70FFF00280CD00121284617F01C
:10954000EDF904000AD10098FDF70AFF002803D0C6
:109550003C4603E000246C60FF2030702046F8BDDC
:1095600011C00000FFFF0000C8B6FF1FC008FF1FAA
:10957000F0B50023084EFF2748201D464543AC198F
:10958000204617F019FA4034E77073555B1C9BB204
:109590000A2BF1D3F0BD0000C8B6FF1F01290CD87B
:1095A0000E4A431C0AD0030F1B074340000F8000E4
:1095B000012911580FD0994311507047012907D044
:1095C000002100208300401CD1501028FAD370479E
:1095D0000021C943F5E71943EEE7000088B6FF1FF5
:1095E00010B505480078000701D5044800E00020C8
:1095F0000CF034FD10BD00000984FF1F0084FF1F24
:1096000010B5FFF72EF806480A210078084204D06A
:1096100004480CF01DFD002010BD012010BD00000D
:109620000984FF1FF883FF1FF3B50446394800265D
:10963000877883B0032C36D8374D2878032802D09A
:10964000102005B0F0BD00F079F9002807D10CF02A
:10965000C1F9002803D10CF0C5F9002801D012206F
:10966000EFE7012C04D0022C02D0032C28D02CE0F0
:10967000049800281FD0062200216846FDF7F8FD57
:10968000062269460498FDF763FD00280BD10622E7
:10969000FF216846FDF7ECFD062269460498FDF7B8
:1096A00057FD002801D00220CBE706226846049926
:1096B000FDF718FD09E00621684616F0C7FF04E033
:1096C0006946686804F0AAFD0646124D1348AC705E
:1096D00004210078FDF7E2FC0020A880002E06D1CE
:1096E000002C05D068460CF093FB060002D0AF704A
:1096F0003046A6E7032CFBD11D2000F0A7F8A88078
:109700000028F5D00548064A04210078FDF72EFE12
:10971000EEE700000884FF1F10DBFF1F9984FF1F86
:1097200060EA000010B50B490968002904D00978E7
:10973000814203D0032010BD122010BD0648012134
:109740000078FDF7ABFC30200CF094FC00200CF00E
:109750005FFD10BD6484FF1F9984FF1F38B5234D42
:1097600004462868002801D0112038BD20480A216D
:109770000078084201D1122038BD0420FDF7CCFD4D
:10978000286000282FD004222146FDF7ABFC00F012
:10979000D5F8002805D00C2000F058F805460D201B
:1097A00007E06078022812D0102000F04FF805463C
:1097B000112000F04BF80246E078002800D001208C
:1097C00000900C480078002807D0012306E0122002
:1097D00000F03CF805461320EBE70023A07829466B
:1097E000FDF7CAFD38BD132038BD00006484FF1F9B
:1097F0000984FF1F0A84FF1F70B5104C21680029DF
:1098000004D00978814203D0032070BD122070BDBE
:109810000B4D02212878FDF741FC0A4800264680BE
:1098200004212878FDF73AFC0748068021680320C8
:1098300048700020FDF7A6FD70BD00006884FF1F82
:109840009984FF1F7C84FF1F0C84FF1F272803D2ED
:1098500002494000085A7047014870471484FF1FAE
:10986000FFFF000010B5044C6070FDF791FD05216D
:10987000607800F0B5FF10BD9884FF1F70B5284ECA
:10988000054630680C46002801D0112070BD2548DF
:1098900001780520014216D023488068002805D0B1
:1098A0000078002802D0C80706D101E0102070BD62
:1098B00000F044F8002808D02078032805D00228BA
:1098C00003D0002801D0122070BD0C20FDF724FD2C
:1098D0003060002820D00570002141700A22214606
:1098E000801CFDF7FFFB0CF0A1FC040002D00CF083
:1098F0000FF812E00D48007803280ED11D20FFF765
:10990000A5FF0B490028088007D00B48094A04210D
:109910000078FDF72BFD00E01324204670BD000009
:109920006884FF1F0984FF1F7C84FF1F0A84FF1FB8
:109930000C84FF1F60EA00009984FF1F10B510F02F
:1099400055FB10BD70B50C4605461C220021094888
:10995000FDF78EFC084805704470FDF71FFD0549B2
:10996000002803D000200870122070BD01220A7068
:1099700070BD000010DBFF1F0884FF1F70B50F4C87
:109980000025A068002802D0FDF7D2FCA560E068A1
:10999000002802D0FDF7CCFCE560094805210078DD
:1099A000084206D0054810300CF05EFB0BF01EFF9D
:1099B00070BD00200CF058FB002070BD7C84FF1FA0
:1099C0000984FF1FFEB5344D0C46080419D568788C
:1099D000FDF7EAFC0121C9034C40064600280ED0E1
:1099E0000CF02CFA002807D12878FF2804D0314643
:1099F000FDF7E0FC002802D03046FDF7E1FC2046F0
:109A0000FEBDE007012700280AD0A868002804D07E
:109A10004168002901D00020884720467840FEBDDB
:109A2000A00709D56868002804D04168002901D042
:109A30000120884702202AE060072AD5174E308887
:109A400000281FD0401E0004000C30801ED10BF0F7
:109A5000C1FF002809D0124807706868002804D0A8
:109A60004168002901D0012088470BF08DFF69462D
:109A700004F0D4FB68460CF0CBF91D20FFF7E6FE9E
:109A8000308003E004216878FDF708FB0420604083
:109A9000FEBD0020FEBD00009884FF1F0C84FF1F48
:109AA0000B84FF1F272807D2044A914204D0044A9E
:109AB000400011520020704702207047FFFF000055
:109AC0001484FF1FF8B50D4617461D4906461B4A6C
:109AD00012248868954208D100282DD00268002AF7
:109AE0002AD029463046904723E0144A521C95421A
:109AF00013D1002807D00268002A04D02946304636
:109B00009047040005D0394630460BF079FD04003B
:109B100012D10B48067047700EE0284610F00AFA82
:109B2000002809D00078B04205D139462846FDF713
:109B30004DFC044600E003242046F8BDFEFF000073
:109B40006C84FF1FF8B50E4601461948154600788B
:109B500005221F46104028D0304326D01548012E3C
:109B60001BD0C468002C20D01F2D18D8002D01D088
:109B7000002F14D001701F220021601CFDF778FB1C
:109B80002A463946601CFDF7ADFA28462570002E9E
:109B900007D0611CFDF720FCF8BD8468E2E70220D5
:109BA000F8BD611CFDF71EFCF8BD1220F8BD0000D9
:109BB0000984FF1F7C84FF1F014610B50020C907E0
:109BC00004D0034A0421034800F0D2F910BD00007C
:109BD000A0230311E478FF1F7CB50C46104905460D
:109BE0000022886818E08688AE4213D1002A0ED081
:109BF00001681160FDF79CFB6946284600F050FAA9
:109C0000002803D1002C01D0019921607CBD02689D
:109C10008A60EFE7024600680028E4D101207CBD9D
:109C2000C478FF1F70B50F4D0F4CA870294618312E
:109C3000204600F01DF8002128460B461030CA00CF
:109C400084521218491C09065360090EF7D00120EE
:109C50000DF0DEFDA87800F0B9FB044810F0DCF947
:109C600070BD0000C478FF1FFFFF000025700211C7
:109C700070B50A4C0025A04209D1002082008C5208
:109C80005218401CC0B295700228F7D370BD0DF079
:109C900098F90028FAD00480857070BDFFFF00009D
:109CA000F8B50E460746069900240798002902D009
:109CB0000B242046F8BD022B01D00D24F9E71178C2
:109CC0005278120289188DB22946814301D080242E
:109CD000EFE73846F16800F03DF9A842E9D02A469E
:109CE0003846F16800F0AEF90400E2D171892A46E5
:109CF000384600F06BF9DCE770B50C46080412D565
:109D00000A488078FDF750FB050008D02878B02875
:109D100002D128460DF072FA2846FDF751FB0120CA
:109D2000C003604070BD002070BD0000C478FF1FFC
:109D3000FFB587B0087A0025109E1C460F46C00666
:109D40000DD509980DF036F9030006D00A223946E0
:109D500007989847050035D101E00E2532E03878A4
:109D600002281DD178682922017840781202000269
:109D7000081880B2811A90427ED009DC7249401ADC
:109D800023D0012821D0022851D0032808D125E072
:109D9000012972D0022971D003296DD004296ED017
:109DA00009980DF02FF90028D7D00568002DD4D0E0
:109DB000129911980191009033462246394607982E
:109DC000A847054628460BB0F0BD1198002873D16E
:109DD000F868017831800278416897E0119800288E
:109DE0006AD101203080F8680021007820707889DD
:109DF000401C80B200F0AAF900280FD03188027808
:109E00008918891C3180817A61704189090AA170A1
:109E100002784168E01CFDF765F9D3E73088042239
:109E2000001D30800021601CFDF722FACAE711985E
:109E3000002872D1F86804A90088009004203080BE
:109E4000009820700098000A6070009800F07EF979
:109E5000070028D0F86805906846028A03AB3B49A2
:109E6000384600F0CBF900280FD13B780221384862
:109E70007A68FEF78BFE03E027E031E01DE049E061
:109E8000002802D131486946888105980078022867
:109E90000CD1059802224168201DFDF723F9308876
:109EA000801C308002E0694600988881684680897D
:109EB000A070000AE07085E72FE0119800282CD1EF
:109EC000F968079800F046F804E01198002824D1BA
:109ED000F8680088022131802070000A607071E704
:109EE000F868FDF785FA1199C0B2814210D8814215
:109EF00001D1002206E0129A8918814202D31199F9
:109F0000401AC2B23280F96811980918204682E7D7
:109F1000072557E71198002801D00B2552E70721A4
:109F2000F868318001782170417861708178A17082
:109F30004188090AE1700179217181796171C088D4
:109F4000000AA0713EE7000000280000FFFF0000AB
:109F5000AA2B031110B50DF034F8002800D080783A
:109F600010BD00000149087070470000C478FF1F51
:109F70007CB51446050019D068460195018000F0B3
:109F80002BFA03001DD1002C1BD06D89002D0DD0A4
:109F90000C20FDF7C1F900280AD00023036085805A
:109FA000094A84609168002904D006E0022308E091
:109FB000132306E0906004E011460A68002AFBD1F2
:109FC000086018467CBD0000C478FF1FF8B50C4C33
:109FD0000746207815460E46FF280FD00A20FDF7C9
:109FE0000DFA01000AD0B1200870002048700871F5
:109FF0004F80CE800D812078FDF7DCF9F8BD0000A0
:10A00000C478FF1FFFB583B008461F4601A90C9E08
:10A0100000F09CF8050012D0684680880CF0F2FF32
:10A0200000280AD04468002C07D000963B462946F9
:10A03000059A0398A04707B0F0BD0E20FBE701206A
:10A04000F9E7000070B514460E4605460CF0B9FF5E
:10A05000002806D1314605480CF0B3FF002803D094
:10A0600005808470002070BD112070BDFFFF0000CE
:10A0700010B50178B0290BD14178002908D10179B8
:10A08000122906D01B2903D14088012100F024FBAE
:10A0900010BDFF210231095C0129F5D010BD00007F
:10A0A00070B50B461049024600204C6818E0A568C0
:10A0B0006D89954212D100280DD021680160002BD6
:10A0C00004D00822211D1846FDF70CF82046FDF7A4
:10A0D0002FF9002070BD20684860F0E72046246812
:10A0E000002CE4D1012070BDAC84FF1FFEB56C468E
:10A0F000A180E280064601AF1D4602A90CF0CCFA11
:10A1000004000CD139463046FEF7D4FD040006D1D8
:10A11000044B05223946009502980DF097FC204625
:10A12000FEBD0000078E011110B586B06C4621807F
:10A13000628002212171032161712821A171002215
:10A1400069460CF0CDFE06B010BD0000F0B58C469F
:10A1500010494B6819E09F687C89A04214D39E88FF
:10A160003119814210D900220CE011017D18698952
:10A17000814205D16046002800D004802846F0BD09
:10A18000521C92B29642F0D81B68002BE3D10020FB
:10A19000F0BD0000AC84FF1FFFB5174881B00A9FD7
:10A1A000446824E000251EE0A06829014618708953
:10A1B0000199884215D30299884212D80498002840
:10A1C00007D031787068049B039AFEF7DFFC002803
:10A1D00007D0002F02D0A06840893880304605B0F3
:10A1E000F0BD6D1CADB2A088A842DDD82468002C5B
:10A1F000D8D10020F3E70000AC84FF1FFEB517465E
:10A2000000256A469580044640891D4A1E469042B4
:10A2100008D001AA0092401C237880B26268FFF740
:10A22000BBFF05462378022116486268FEF7AEFCA4
:10A23000002807D12378022113486268FEF7A6FCA4
:10A24000002801D060890EE0237802210F4862685F
:10A25000FEF79CFC00280DD0002D03D068468088B6
:10A26000B84203D038460DF0D1FB04E06889401EA7
:10A2700080B200E06089002E00D030802846FEBD0C
:10A28000FFFF0000A82B0311AA2B0311AE2B031113
:10A2900010B505490870042100F0A2FA00F038F862
:10A2A000FEF740FD10BD0000B884FF1FF8B5002484
:10A2B000134D2646FF2715E0FF200D3069686043E7
:10A2C0004018002C19D00F49018086704772FF2179
:10A2D000077209310E54FC2200210C30FCF7C8FF34
:10A2E000641CE4B228788442E6D307480CF02CFEC4
:10A2F00006480FF091FE0020F8BD0249491EE3E731
:10A30000A484FF1FFFFF00003D6502118564021158
:10A31000F8B50F4D0D4B00206E1C1C78FF2209E094
:10A320009F688100C91900280ED00E80CA70401C99
:10A330008A70C0B2A042F3D306480CF00BFE064868
:10A340000FF06AFE0020F8BD0D80EFE7AC84FF1F20
:10A35000FEFF00003D790211BD780211F8B50D46EF
:10A360001446064669460CF0ADF917280CD0002CAF
:10A3700006D00122102130460FF0B6FD002803D18F
:10A3800029463046FEF7C4FCF8BD000070B50C4607
:10A39000080411D509480078FDF706F8050007D034
:10A3A0000178A02901D10CF0E9FC2846FDF708F856
:10A3B0000120C003604070BD002070BDB884FF1F45
:10A3C0000149487070470000A484FF1F014948708C
:10A3D00070470000AC84FF1F70B505460088002858
:10A3E0001DD068680221037842682248FEF7CEFB40
:10A3F000002808D168680221037842681E48FEF7E9
:10A40000C5FB00280BD01D4C6088002805D0012218
:10A4100029881204101A814203D9012070BD02203C
:10A4200070BD0C20FCF778FF060001D000200BE087
:10A43000132070BD01016B6862880A315A5261882D
:10A44000491C401C618080B229888142F2D80020DA
:10A45000306008222946301DFCF744FE6068002861
:10A4600002D1666004E0084601680029FBD106605D
:10A47000002070BDA82B0311AA2B0311AC84FF1F71
:10A480000649496806E08A685289824201D1888873
:10A49000704709680029F6D100207047AC84FF1F7F
:10A4A00010B51422114201D0012202E04A0604D55F
:10A4B000002210210FF018FD10BDC80701D00020A8
:10A4C00010BD022010BD10B514468A0604D5012225
:10A4D00010210FF009FD10BD882211420ED0082274
:10A4E0000A4010210FF000FD00280BD0E034617EFF
:10A4F0000029F0D0217E0129EDD103E0880701D4A5
:10A50000032010BD002010BD014610B50020C90772
:10A5100004D0034A07210348FFF72AFD10BD0000BD
:10A52000B42303113879FF1F70B50D461646002479
:10A530001D490300FCF7A0FD08051234341934222C
:10A540002934152D23D8162200211848FCF790FE37
:10A550002A4631461548FCF7C5FD22E0022D16D1EA
:10A5600011491088103908801BE0082D0FD10E48C2
:10A57000082231460838FCF7E7FE12E0012D06D12B
:10A58000CA6909493078283107E0012D01D0182423
:10A5900007E0CA6B0449307848310DF038FB00E021
:10A5A0000224204670BD00003879FF1FFEB5FF1F52
:10A5B000F0B5069F099E002833D0102831D8002915
:10A5C0002FD0002A2DD0002B2BD0002F29D0079C74
:10A5D000002C26D0089C002C23D0002E21D00A9CD1
:10A5E000002C1ED0104C851D20706570A26061602B
:10A5F0000E490F4A0B60059911600E490E4A0F6013
:10A60000079911600D4A089911600D49401C0870A6
:10A610000C490E600C4908700C490A98086000202B
:10A62000F0BD1820F0BD0000C884FF1F5C85FF1F2F
:10A63000F083FF1F7884FF1F4C85FF1F5085FF1F8D
:10A64000A484FF1FA884FF1FAC84FF1FB484FF1FD6
:10A650000B7803700B8802221B0A43700B88801C46
:10A66000012B02D0022B07D011E08A7802704988B2
:10A67000090A417004220AE08A7802704A88120AA4
:10A6800042700A7982708988090AC17006221046D0
:10A6900070470A7802700988090A417002207047E1
:10A6A00008B5044B009313460A4601210FF0F4FA53
:10A6B00008BD000051A6011108B5044B00931346D4
:10A6C0000A4613210FF0E8FA08BD000093A6011115
:10A6D00010B5FCF799FE10BD13B5044800780128A9
:10A6E00003D101AA6946FCF795FE1CBDC484FF1F77
:10A6F00070B51049104A087000210B468C00491CA7
:10A70000C9B213530429F9D30B4C00211034FF268E
:10A710000A460A256A4315196B80491CA354C9B21D
:10A720006E720329F4D3FCF77BFE0FF06BFA0FF087
:10A7300037FC70BDC584FF1F2CDBFF1F082A01D02A
:10A74000012070474B780A781B02D2180280CB7820
:10A750008A781B02D21842804B790A791B02D218E0
:10A7600082808A79C97909025118C1800020704716
:10A7700070B50C46080411D509480078FCF714FEA2
:10A78000050007D00178902901D10FF09DF92846E6
:10A79000FCF716FE0120C003604070BD002070BDB4
:10A7A000C584FF1F70B50C490978884213D20B4C41
:10A7B000060160680025855330188581606830186F
:10A7C0008580606830188068002804D0FCF72EFE71
:10A7D00060683018856070BDC884FF1F4885FF1F02
:10A7E000072907D0052905D0042903D0062901D05F
:10A7F00002207047044A8B009A181346403B198682
:10A80000203A9074002070472CDBFF1F70B5174969
:10A810000978884228D25C21154C4843A168054636
:10A820004018002640300674A0682818403046744E
:10A83000A068281840300676A0682818406D0028C7
:10A8400004D0FCF7F3FDA068281846650026A06830
:10A85000F100281840184068002801D0FCF7E6FDF8
:10A86000761CF6B20A2EF2D370BD0000C884FF1F1A
:10A870004885FF1F70B50A880C460546072A07D091
:10A88000052A05D0042A03D0062A01D0022070BD73
:10A8900001210FF0F3FB002804D0214628460EF0DA
:10A8A00091FE70BD142070BD10B5001D80B2FCF784
:10A8B000C3FD002803D00321C943FCF7C3FD10BD2D
:10A8C000F8B50F4601463820174A414388180379E6
:10A8D000144C002B02D15158002904D02821095CC6
:10A8E000012902D01BE00D2419E0124B03240021A2
:10A8F0000E4A0F4E1B7810E028254D43AD186D8C85
:10A90000B54209D0BD4207D12C3006F09BFF002490
:10A91000022011F0D7FD02E0491C9942ECD32046F9
:10A92000F8BD00002124000078BDFF1F14CAFF1FDE
:10A93000FFFF00009C7CFF1FF7B52D4A07461178EA
:10A940002A4E0C4600202B4D24E0282242439446F8
:10A950005219528C284B9A4218D0019B9A4218D116
:10A9600028214843285AB84201D0042609E060460D
:10A9700040191022801C0299FCF76AFD002803D0C0
:10A9800006261B48047807E00026FAE7A14200D11A
:10A990000446401C8842D8D315480078A04222D0F3
:10A9A000282126464E431349019875186884A81C2F
:10A9B00010220299FCF7C8FC0E48214687537820E4
:10A9C00047430E483818703006F03CFF2A462432C0
:10A9D0001021029812F0FCFC00202035A8710646D8
:10A9E000102011F06FFD3046FEBD00002024000055
:10A9F0009C7CFF1F14CAFF1FFFFF0000D8C1FF1F70
:10AA0000F7B584462F4A30480E462D4C51890088B0
:10AA10002546814201D32D48FEBD00202C4A08E086
:10AA2000142343439B181B8AB34201D1002504E041
:10AA3000401C0B468842F3D318461421484324494E
:10AA40001022471861463846FCF77EFC3E82029889
:10AA5000B874A54203D11B484189491C41811D4856
:10AA60000078022826D11748A64681888689C5889D
:10AA700043898C468189A94201D1614602E0491C83
:10AA800089B281818181B14201D10D48FEBD002290
:10AA90000BE0142714467C430D4FE419248A8C42A2
:10AAA00002D100218E46E5E7521C9A42F1D30449B7
:10AAB0008E45DFD1082011F005FD0020FEBD00000D
:10AAC000FFFF00002A7DFF1FA07CFF1F2524000040
:10AAD00054C6FF1F547DFF1FFFB593B015461C469B
:10AAE0000EAA00211C9F139800F0AEFB0D900028C9
:10AAF00045D108F037F923480923017814980AAAA8
:10AB0000081886B2012108A801728572290A4172CB
:10AB10000473210AC1728773390A41731D99017444
:10AB2000090AC17301A8009010210EA812F0AEFB13
:10AB3000684601797820144C464335194222515514
:10AB400028462F4601A93230223710220131FCF766
:10AB5000FBFB05A9102201313846FCF7F5FB01206B
:10AB60000003A053139878214843001974301499B6
:10AB700006F068FE13986867042011F0A3FC0D9896
:10AB800017B0F0BD9A7CFF1FD8C1FF1F7FB50C46E0
:10AB90003821184A41438D182821495D144E012956
:10ABA00023D1217801290CD061886A4691806B46B7
:10ABB000012201A912F012FA00280DD0052004B0DC
:10ABC00070BD6B4601AA0121201D12F071FA002808
:10ABD000F4D168468088608028460026303000998D
:10ABE00006F030FE022011F06DFC3046E7E7000071
:10ABF0002124000078BDFF1FF7B5354B0E461978AC
:10AC000005200C460022334D1FE078235343EB5AB6
:10AC1000314FBB4203D1A14201D1144614E0009F41
:10AC2000BB4211D12D4914468E4216D1782044439F
:10AC300060191022801C0299FCF70AFC002800D041
:10AC4000062023490C7808E0521C8A42DDD3234AAF
:10AC5000521D964201D104200C461D490978A1429B
:10AC600029D01E4886421DD1A0B20023029A009925
:10AC700011F064FAA0B2002111F076FA7820444372
:10AC80006419174920467030097806F0C7FD154948
:10AC900020467430097806F0C1FD13490889401C2C
:10ACA000088113E0A0B27821484340196030407B0E
:10ACB000002801D00B20FEBDA0B20123029A00990A
:10ACC00011F03CFAA0B2012111F04EFA0020FEBDB5
:10ACD0009A7CFF1FD8C1FF1FFFFF000040800000CB
:10ACE0009C7CFF1F9B7CFF1F2A7DFF1F70B53821B6
:10ACF000484311490F4D44182820005D012813D105
:10AD0000002230342046212106F046FD0546401C35
:10AD100005D00121284611F075FC6A1CF2E7204697
:10AD2000212106F07BFD0025022011F0CBFB2846F7
:10AD300070BD00002124000078BDFF1FF8B50C4E47
:10AD40000D4631780B4F49198CB278214843C01910
:10AD50002946743006F06AFD78214C430648E11913
:10AD600048673078401980B200F03EF8F8BD000026
:10AD70009A7CFF1FD8C1FF1FFFFF0000F8B50C46EB
:10AD80000021C9430091382148431649144E451803
:10AD90002820405D012820D12078012808D06A466B
:10ADA0000121A01C12F0F6F8002808D00020F8BD00
:10ADB0006B46A21C0121201D12F008FAF4E70121C4
:10ADC000009811F01FFC060007D12846303000998A
:10ADD00006F02CFD022011F075FB3046F8BD000096
:10ADE0002124000078BDFF1FF8B5114A0C261389F5
:10ADF000012B1AD9782148430E490F4C0D5AA54210
:10AE000013D05B1E0C520026138145180B4F32469F
:10AE100070352846397806F0BFFC0446401C04D043
:10AE2000204611F027FC621CF3E73046F8BD000015
:10AE30002A7DFF1FD8C1FF1FFFFF00009C7CFF1F62
:10AE400078235843034B0022C018406F08801046F7
:10AE500070470000D8C1FF1FF0B50E4C07460A48E6
:10AE600000220A4B0A4E24780AE0782555435D5BA0
:10AE7000B54204D0BD4202D10A800020F0BD521C70
:10AE8000A242F2D3F0BD000021240000D8C1FF1F70
:10AE9000FFFF00009A7CFF1F70B5114C002911D0F4
:10AEA000002A0FD0282358430E4B0F4DC018438C57
:10AEB000AB4205D0831C20300B6000791070002459
:10AEC000204670BD064909A00F390C46FCF72AFA46
:10AED00014A0FCF727FA14480020C046F0E7000051
:10AEE0002224000014CAFF1FFFFF00005B434D5DDA
:10AEF000204E554C4C20706172616D6574657220F6
:10AF0000696E20676574204170704B65792E205200
:10AF1000657475726E696E67203078253034580A12
:10AF2000000000000D0A0000247AFF1FFFB58C46C8
:10AF30001749864681B013480024134B134F0D78F0
:10AF40001DE0214628267143CE18768CBE4215D0CE
:10AF5000664513D1595A714510D128206043C11854
:10AF60001022891C0398FCF773FA002802D00620EF
:10AF700005B0F0BD049804800020F9E7641CAC42E1
:10AF8000DFD3F5E72124000014CAFF1FFFFF0000F4
:10AF90009C7CFF1FF7B58E467821174A4143525AD1
:10AFA0001649144D00238A4220D00022144917E08C
:10AFB000282416466643134CB4463619768C0F4F38
:10AFC000BE420CD06746E45B844208D174462488B4
:10AFD0009C4208D95F00029C5B1CE6539BB2521C4A
:10AFE0000C78A242E4D3002B00D0002570460380E9
:10AFF0002846FEBD21240000D8C1FF1FFFFF00002E
:10B000009C7CFF1F14CAFF1F002804D00349097845
:10B010000170002070470248704700002A7DFF1F22
:10B02000132400000A4A1288824207D9002905D059
:10B03000084A5289904204D3074870470648401E88
:10B04000704714225043054A80180860002070475A
:10B05000A07CFF1F2A7DFF1F1224000054C6FF1F83
:10B06000024A0146527800200A7070472A7DFF1F6D
:10B0700001228A4005490346497800200A4201D04E
:10B08000012100E000211970704700002A7DFF1F98
:10B09000024A0146927800200A7070472A7DFF1FFD
:10B0A00010B500280CD0074A14791368E407E40FA0
:10B0B0001B1B0360002901D010790870002010BD0F
:10B0C000014810BD60D8FF1F1324000000290BD0D9
:10B0D000064AC0071268C00FD307DB0F834200D0B7
:10B0E000521E00200A6070470148704760D8FF1F59
:10B0F0001324000030B578235843074B074D1C5AE2
:10B10000044AAC4204D0C0186030407B0870002272
:10B11000104630BD21240000D8C1FF1FFFFF0000F2
:10B12000F7B50F46382148431349124E45182820D9
:10B13000405D002401281AD100222C350F492846F1
:10B14000097806F029FB411C0ED03988A1420BD9A1
:10B1500028210B4A414389184A8C63000299641CD8
:10B16000CA52A4B2421CE9E7002C00D000263C8061
:10B170003046FEBD2124000078BDFF1F9C7CFF1FD0
:10B1800014CAFF1F70B50C46014638225143154AB8
:10B1900013488E1835462035297A012907D1287998
:10B1A000012805D01C212046FCF758F9002070BD6D
:10B1B000A21C0021B06911F0F1FBB08B282148439B
:10B1C00009494018408CA082B07FA075F07FE075DF
:10B1D00028782076A8786076E878A076E6E7000000
:10B1E0002124000078BDFF1F14CAFF1FF7B53821C6
:10B1F00048431449124F46182820805D0025012835
:10B200001AD1002230363046212106F0C5FA044614
:10B21000401C0ED001980088A8420AD90298690003
:10B220000A180121204611F0B9FB6D1CADB2621C59
:10B23000E9E7002D00D00027019805803846FEBDC3
:10B240002124000078BDFF1F70B5154678220A4CF6
:10B250005043225A094E074BB24208D00019090147
:10B26000411810222846891CFCF76EF80023184666
:10B2700070BD000021240000D8C1FF1FFFFF0000A7
:10B28000F0B5044600220E4813460E4E0FE0782516
:10B290001F466F430C4DED5B0C4FBD4206D0278817
:10B2A000974207D95700521CCD5392B25B1C357898
:10B2B000AB42ECD3002A00D000202280F0BD000079
:10B2C000212400009A7CFF1FD8C1FF1FFFFF000050
:10B2D00038B50C4600222270782250430C4A0D4D9E
:10B2E000135A0A49AB420ED080186030007B2070A0
:10B2F00001216846FFF7BCFE68460078012801D0AE
:10B30000022020700021084638BD000021240000E2
:10B31000D8C1FF1FFFFF0000002804D0034909889F
:10B32000018000207047024870470000A27CFF1F88
:10B330001324000010B50B460C490D4A0978127809
:10B340008918814201D80B4810BD002B0AD0782102
:10B35000484309491022411818464431FBF7F4FFCD
:10B36000002010BD03480F3810BD00009A7CFF1F5D
:10B370009B7CFF1F22240000D8C1FF1F10B50B4685
:10B380000C490D4A097812788918814201D80B4876
:10B3900010BD002B0AD078214843094910224118DA
:10B3A00018463231FBF7D0FF002010BD03480F389C
:10B3B00010BD00009A7CFF1F9B7CFF1F2224000011
:10B3C000D8C1FF1F10B50B460F49104A09781278F3
:10B3D0008918814201D80E4810BD002B0ED078216B
:10B3E00048430C490C4C0A5AA2420AD04118102278
:10B3F00018465C31FBF7A8FF002010BD04480F3849
:10B4000010BD042010BD00009A7CFF1F9B7CFF1F15
:10B4100022240000D8C1FF1FFFFF000010B50B461B
:10B420000F49104A097812788918814201D80E48CC
:10B4300010BD002B0ED0782148430C490C4C0A5A01
:10B44000A2420AD04118082218465431FBF77CFF6B
:10B45000002010BD04480F3810BD042010BD0000AE
:10B460009A7CFF1F9B7CFF1F22240000D8C1FF1F76
:10B47000FFFF000010B50D4A0D4B12781B78D21853
:10B48000824206D9782250430A4A0B4C135AA342EF
:10B4900001D10A4810BD002905D0801840308078BD
:10B4A0000870002010BD05480F3810BD9A7CFF1FA2
:10B4B0009B7CFF1FD8C1FF1FFFFF0000222400005C
:10B4C00010B50B460C490D4A09781278891881424B
:10B4D00001D80B4810BD002B0AD0782148430949F8
:10B4E0001022411818462231FBF72EFF002010BD14
:10B4F00003480F3810BD00009A7CFF1F9B7CFF1F84
:10B5000022240000D8C1FF1F10B50246054B54008D
:10B510001A5D0A70E3185B780020DB001A430A709A
:10B5200010BD00003A7DFF1FF8B51C4C944606463E
:10B5300000291BD0100019D00888194A194B9042D5
:10B5400000D10020184A1778B84222D2282242435C
:10B55000D51820352A79B2420BD1088028214843DA
:10B56000C118002410226046891C10E00B4C0E3CD0
:10B570000FE0AA79002A0ED06A79B2420BD1088076
:10B5800028214843C1180024102260461231FBF7DD
:10B59000DBFE2046F8BD401CD6E700002124000059
:10B5A000FFFF000014CAFF1F9C7CFF1FFFB591B076
:10B5B0000020187011983D4D1F460E4600280AD0F5
:10B5C000002E08D01398002805D0348838488442CB
:10B5D0002CD100242AE0354D0E3D2BE07820214669
:10B5E0004143344808220918019154311198FBF75E
:10B5F0002FFF002821D001986030407B002814D014
:10B600002DA000682DA1109003C908900198099100
:10B6100012300EAA1021039011F0A8FE08220EA9E4
:10B620001198FBF715FF00281AD0641C25480078F4
:10B630008442D3D3284615B0F0BD348078204443EB
:10B640001C4800252118102244311398FBF77CFE7A
:10B6500001986030407B0228ECD301203870E9E784
:10B6600078201449604340186030407B022801D2A2
:10B67000012038700020049005900690079004AADD
:10B68000042110A811F0D2FE0AA906200191009011
:10B6900008AB04AA1021039811F0DEFD34800025C8
:10B6A00010220AA91398FBF74FFEC3E721240000DC
:10B6B000FFFF0000D8C1FF1F6E6B626B69643132FF
:10B6C000380100009A7CFF1FFFB56A4F8FB00E0053
:10B6D0001ED0119800281BD01298002818D034884A
:10B6E0006549664D66488C4200D1002401788C4241
:10B6F0007ED2782262435219009240329446937867
:10B700000F9A934217D15F488078022803D04AE00D
:10B71000584F0E3FAAE0574F7F1D34807820444396
:10B720006119102222311198FBF70EFE00991022A8
:10B730003231129825E0009A6032527B002A26D0DE
:10B740006246D3780F9A934221D100200A90782044
:10B750006043401901AD01230AAA1021123000955F
:10B7600011F094FD4748807802280DD000273480DE
:10B770001022691C1298FBF7E7FD05A91022013180
:10B780001198FBF7E1FD71E03A4F7F1DEFE7641C74
:10B79000ADE7204678225043401900904030807831
:10B7A0000F9A904201D10027B7E70098324A406FC4
:10B7B000904253D078225043401900906030407B33
:10B7C00000284BD0601A81B22E480DAA807801F073
:10B7D000C3FF0098012108AA11722A4A2A499278C7
:10B7E00009881230022A31D06A46D38E08AA00E0B6
:10B7F00035E093721B0A53721173090AD1726A46BB
:10B80000118F08AA9173090A51736A46518F08AAC9
:10B810001174090AD17301A9009109230AAA102100
:10B8200011F034FD6A4611790F98814216D101A9B1
:10B83000102201311298FBF787FD05A91022013172
:10B840001198FBF781FD002734800FE008AA917260
:10B85000090A51726A46D18E08AACDE7641C0848CD
:10B8600001780A4800780818A04292D8384613B0E8
:10B87000F0BD000021240000FFFF0000D8C1FF1F21
:10B880009A7CFF1F2A7DFF1FA27CFF1F9B7CFF1F4E
:10B89000FEB50024474F012852D100261BE0382076
:10B8A000454970434518AC61EC612C6243486C62B9
:10B8B00000781F304009810028462C30FBF7D0FB70
:10B8C0003E4800781F304009810028463030FBF7A1
:10B8D000C7FB761CB6B23A4800788642DFD33948B7
:10B8E0003C81017838482546007809187820414382
:10B8F0003648FBF7B5FB10F0C7FB3048017828202D
:10B9000041433348FBF7AAFD324886782E48007839
:10B9100081003048091DFBF7A1FD2E4886702E4896
:10B920000178142041432D48FBF798FD2C480078FE
:10B9300081002C48FBF792FD1E48103005804580A1
:10B940007C81B888B8812848018814204143274861
:10B95000FBF784FD2648046004718460002001F038
:10B960008BFC01F071FC01F07BFC01F0F3FD012187
:10B97000022000F0E3FD0121032000F0DFFD0121A2
:10B98000002000F0DBFD0021084600F0D7FD6846EE
:10B9900001F0E8FA01990098884204D0C81DFF30F0
:10B9A000FA3001900090684601F0D4FB2046FC81FB
:10B9B000FEBD00002A7DFF1F78BDFF1F9C7CFF1F7E
:10B9C000997CFF1F9A7CFF1F9B7CFF1FD8C1FF1F24
:10B9D00014CAFF1FA27CFF1F9D7CFF1F8CCAFF1F84
:10B9E0009E7CFF1FA0CAFF1FA07CFF1F54C6FF1F25
:10B9F00060D8FF1F002802D0811E7D2903D8034A8A
:10BA00000021107000E00249084670472A7DFF1FA0
:10BA1000FFFF000070B501228A400F4905464878B3
:10BA2000134600240340012D0FD0002B00D001232A
:10BA300090434870002B06D0D0B202F0F7F90120F5
:10BA4000400210F03FFD204670BD002B02D00023C5
:10BA50001043EEE70123FBE72A7DFF1F10B50649DF
:10BA600000248A788870022801D0022A02D1082096
:10BA700002F0DCF9204610BD2A7DFF1F10B5044AF4
:10BA800010601171042010F01DFD002010BD000099
:10BA900060D8FF1F70B50D46034678214843024623
:10BAA0000C490D488E5A0A4C86420FD0511860310D
:10BAB0004A7B00242978002A04D0184610F054FB51
:10BAC000024602E0032900D004462A70204670BDD9
:10BAD00021240000D8C1FF1FFFFF0000FEB50C4667
:10BAE00038490291E37E384A012B01D0A58A19E03A
:10BAF0003649002509780BE028262F467743344E37
:10BB0000BE19768C964202D0A78AB74202D06D1C2D
:10BB10008D42F1D3A94201D10320FEBD012B01D1F9
:10BB2000A9424CD038212B4A41438F183E4620363B
:10BB3000317A012943D1217801AB012907D00022B4
:10BB4000A11C11F04BFA00280BD00520FEBD6A465F
:10BB50000021201D11F0ACFA0028F6D168460088BB
:10BB600060803079012809D1B8690199884202D1F1
:10BB70006188002902D1002110F044FD0198B861CC
:10BB8000608869460880002803D11C212046FBF705
:10BB900065FCBD83A07DB877E07DF877207E3070AE
:10BBA000607EB070A07EF07068460088002800D0EB
:10BBB0000120307100200290022010F083FC0298D6
:10BBC000FEBD000021240000FFFF00009C7CFF1F41
:10BBD00014CAFF1F78BDFF1F0F2901D90448704701
:10BBE00038225043034A8018203041700248704781
:10BBF0001124000078BDFF1FFFFF0000F8B50D46BF
:10BC0000044678210D4E4C43315B0D4A0A4891425F
:10BC100011D001216846FFF72BFA68460078012809
:10BC200001D002202870A019297860300173042007
:10BC300010F048FC0020F8BD21240000D8C1FF1FEF
:10BC4000FFFF0000002805D0010403D4034A0021AF
:10BC5000108000E00121084670470000A27CFF1F11
:10BC60007CB5044610F010FA10F0DCF92248007898
:10BC700081002248FBF7F2FB214801781420414360
:10BC80002048FBF7EBFB20480021018041800FF0AA
:10BC900073F8208BFFF7D6FFA07C4008C00705D0C3
:10BCA00021250021284601F05DFA00E00025294603
:10BCB0006069FFF7E3FE208A22461449FEF79CFFE5
:10BCC0000546A07CC00711D01049208A2246491D94
:10BCD000FEF792FF208A01A9FFF7BEF80546022170
:10BCE0006846017001468088FFF7D4FE084810F0CE
:10BCF000E9FB28467CBD00009E7CFF1FA0CAFF1FF9
:10BD00009D7CFF1F8CCAFF1F3A7DFF1F40800000F3
:10BD1000FF0F000010B54B07420006485B0F83542D
:10BD2000C9081018417001200024400210F0CAFB1D
:10BD3000204610BD3A7DFF1FFFB50B4601462B483C
:10BD400094460325027881B000242948294F11E048
:10BD5000282666433618768CBE420AD09E4208D109
:10BD600028236343C35A8B4201D0112504E00025E8
:10BD700002E0641C9442EBD3A24234D0002D32D1B5
:10BD8000782671431C4E0123DB038E199C4508D194
:10BD9000204610F06FFC30467030214605F046FD1D
:10BDA0001BE028214C43241827462037B879002867
:10BDB00003D16036707B012801D00B250DE02046B1
:10BDC000123010220499FBF7BFFA224625321021C7
:10BDD000049811F0FDFA0120B871102010F072FBE8
:10BDE000022010F06FFB284605B0F0BD9C7CFF1FC1
:10BDF00014CAFF1FFFFF0000D8C1FF1F0021017000
:10BE000008467047F1B584B0049800282FD0808888
:10BE100000282CD004980068002828D053480078C7
:10BE200000908000FDF7B6FA060023D004980B2599
:10BE30000468002020704E48017861700188090A6A
:10BE4000A1708178E1704188090A217101796171DD
:10BE50008188090AA1718179E171C188090A217279
:10BE6000017A61720089000AA072002773E04148DC
:10BE700005B0F0BD3F480E38FAE738460621484382
:10BE80003D490290401801900079002862D037485F
:10BE90006A46007800903146384610F0E3F9009881
:10BEA000002857D034480299415C61550299405AA4
:10BEB0006119000A48700199AD1CA8B28978215413
:10BEC0000199401C80B2C9782154401C85B20020E1
:10BED00010E08100725838214A43284953181B79D1
:10BEE000002B06D1895A6155090A6219AD1C51709F
:10BEF000ADB2401C00998842EBD3002027E08100BE
:10BF0000725838235A431D4B9446D2181279012A8D
:10BF10001CD162469A5C6255725838235A43174BBB
:10BF20009A5A6319120A5A709C46725838235A4317
:10BF3000124B9A586346120C9A70725838214A4331
:10BF40000E498958090E2D1DD970ADB2401C0099BB
:10BF50008842D4D37F1C0A48007887428DD330466C
:10BF6000FDF772FA04988580002081E7997CFF1F15
:10BF700054D8FF1F1324000066BDFF1F78BDFF1FAC
:10BF8000987CFF1F064B1A889B78904206D3D318E3
:10BF9000834203D9801A087000207047012070473F
:10BFA000A27CFF1FFFB59E46144B00201D786B46F8
:10BFB0000146114A1F7A17E038234B439C18282664
:10BFC000365D9C46012E0ED1237A009EB3420AD1E3
:10BFD0002379BB4207D16346D358019CA34202D1C7
:10BFE0007246118002E0491CA942E5D38D4200D17E
:10BFF000022004B0F0BD000078BDFF1F997CFF1F38
:10C0000010B5008838225043064A80182422125C5A
:10C01000012A01D0044810BD0A468069002110F0B1
:10C02000BDFC10BD78BDFF1F2724000030B50C4AB1
:10C03000904212D00B49551E931ED41E4978A84237
:10C0400002D1C80709D109E0984201D1480702E0AE
:10C05000A04203D18807002800DA0022104630BD34
:10C06000FFFF00002A7DFF1F70B504000E4818D0A6
:10C07000210416D40E4B00221B780C495B1C0DE0EA
:10C0800096008D5B002D08D07618B678AC4204D3AC
:10C09000AD19A54201D9002070BD521C9A42EFD3C0
:10C0A00070BD012070BD000021240000A27CFF1F94
:10C0B0009B7CFF1F01B581B06A46012101A810F0E9
:10C0C00069FF002804D06A46012101A811F052F846
:10C0D0000CBD0000FEB5274C002801DA2046FEBD4D
:10C0E0000026012820D024481121006809060002FA
:10C0F000000A224F45183868022228186946801C19
:10C10000FBF7B2F938680122281801A9401CFBF797
:10C11000ABF9684601881748814203D16846007927
:10C12000FF2822D0002414E01548DDE71420214622
:10C13000414314480F180838417800207A6812F0FB
:10C1400081FE7868BA684119304609F0BBF80646A6
:10C15000641C684600790009001F0007000FA04218
:10C16000E4D868460088B04201D00248FEBD0020F5
:10C17000FEBD0000FFFF00001C81FF1F2081FF1F8C
:10C180001881FF1FA87BFF1F01490870002070471E
:10C19000A07BFF1FFFB583B00F461C46164602A9C1
:10C1A0000C9D0398FFF72CFF002808D168460195E5
:10C1B0000094028933463946039800F003F807B02B
:10C1C000F0BD0000F0B59446154A1C46138802885D
:10C1D00038204243134885B01218107A0A9E181866
:10C1E000938B927F0B9D80B2012A05D00E4A127864
:10C1F0009A4204D8002207E00C4A127804E01A465A
:10C2000028277A430A4FBA5A0A4F3F78009701AF5E
:10C2100052C70495614600F09DF805B0F0BD0000DE
:10C22000A27CFF1F78BDFF1F9C7CFF1F9A7CFF1F15
:10C2300014CAFF1F2A7DFF1F38B514460D466846F5
:10C240000FF064FD00280BD169462B88097806227F
:10C25000044D4A43AB52217003498A78521C8A70BC
:10C2600038BD000066BDFF1FA27CFF1FF8B50C465D
:10C2700015466946204610F067F9010005D01548BB
:10C28000814200D100210846F8BD68460288382066
:10C29000114E50438019E368C360A3694361A38AC8
:10C2A0000382237A037248CC48C0083C23790B48A8
:10C2B000002B237A07D0062463431B18D878401C30
:10C2C000D8702A80DFE7062463431B189878401C47
:10C2D0009870F6E72324000078BDFF1F66BDFF1F9E
:10C2E000FFB587B0119C149E1546FF2C01D116484E
:10C2F0000478164838220188079800885043144A69
:10C300008018007A081880B2089005A90798FFF7EE
:10C3100077FE002700280AD16846828AAA4206D002
:10C3200001970096139B12990798FFF74BFF1298FD
:10C33000139901AA0094C3C22946109B0A9A08982F
:10C3400000F008F80BB0F0BD2A7DFF1FA27CFF1F94
:10C3500078BDFF1FFFB5E7B01F46739E719C6798BD
:10C3600000F0F8FD012802D021486BB0F0BD214853
:10C37000210EFAD17F2CF8D021020B0E2204120ECE
:10C38000E1B204AD002B0AD0E3431B029B0FECD1BA
:10C39000240C6B461C7499745A7403210CE023041A
:10C3A0001B0E06D02304E0D56B4659741A74022183
:10C3B00002E06A46117401218C19FF23221D81338A
:10C3C0009A42D2D8681832467299FAF7BDFF60A82F
:10C3D000649584827099749864AA0292039000977D
:10C3E000019167A80BC8002201F028FBBDE70000FF
:10C3F0002424000012240000F8B58C46382148435C
:10C400001849174F45182E462036307A012825D175
:10C4100016490024144809781EE0224628235A436E
:10C420001218528C124B03279A4214D0624512D133
:10C4300028462C30214605F0F9F93079012805D13C
:10C44000A88BA1B2884201D10020307100270220C0
:10C4500010F038F802E0641C8C42DED33846F8BD98
:10C460002124000078BDFF1F14CAFF1F9C7CFF1F02
:10C47000FFFF0000F7B52D4A82B00546002945D0E0
:10C480002B488860FF206B461870002729483E46DD
:10C49000012D04D0032D08D0042D37D105E04068CC
:10C4A000002833D1234C18701AE00123A0245C43E8
:10C4B00024186468002C04D05B1CDBB2022BF5D37B
:10C4C00024E0A0245C4324186846037008680068D0
:10C4D00003882046803043830B681B689B78037772
:10C4E000002C13D014222046FAF7C4FF206800283D
:10C4F00001D0868807681049A8000C5833463A4690
:10C5000001216846A047012D03D009E0104605B07F
:10C51000F0BD0948334684683A4601216846A04781
:10C5200069460A7804990A70F1E70000FFFF0000ED
:10C530004930021198CBFF1FD8CCFF1F1FB50B4A03
:10C540005468002C0FD000226B4600011A7008437B
:10C55000587001921A81102303926A462B210448D5
:10C56000A04704B010BD0348FBE7000098CBFF1FB5
:10C57000B87CFF1F14200000FFB51B4F8FB07868F8
:10C580001D46164600282DD000206C462070102233
:10C59000601CFAF7D9FE6A469674300A507413226A
:10C5A000002D0FD0286800280CD0A988002909D0B8
:10C5B0000AAA10F03BFF04A804220AA90330FAF7E4
:10C5C000C3FE17221021684601760F994176079421
:10C5D0000284099510237C6806AA2B210348A047F2
:10C5E00013B0F0BD0248FBE798CBFF1FB87CFF1FDC
:10C5F0001420000070B50D46154988B04E681446E9
:10C60000002E22D0102269460A720001487203955A
:10C610000C8200201346059002AA2B210D48B0473A
:10C6200001206946087068460695848306AA43215E
:10C6300000F094F868460078401CC1B2684601706A
:10C640000229F0D3002008B070BD0348FBE70000CA
:10C6500098CBFF1FB87CFF1F142000000148007812
:10C6600070470000B97CFF1F1FB50B4A5468002CAF
:10C670000FD00A016946521C0A70487000200190D0
:10C680000881102303906A462B210448A04704B078
:10C6900010BD0348FBE7000098CBFF1FB87CFF1FCD
:10C6A00014200000052806D2002904D0034A800087
:10C6B000115000207047024870470000D8CCFF1F7F
:10C6C00011200000002901D0032801D90348704738
:10C6D000034A800011500020704700001120000024
:10C6E000ECCCFF1FF8B50D00044608D02878174998
:10C6F000022828D2032C04D0012C05D009E01448CC
:10C70000F8BD002802D004E0002802D00F48401CE9
:10C71000F8BDA02250430F4A80184268002A12D068
:10C72000A021FAF79DFCA4000B4F00233E591A46A6
:10C7300019462846B047E019002344681A461946AE
:10C740002846A047F8BD0846F8BD000011200000AB
:10C75000FFFF000098CBFF1FD8CCFF1FF7B58CB0B0
:10C760000C98002844D0002A42D0106803900C98FE
:10C7700096880078A02250433B4A841865683B485D
:10C78000002D36D08A098906890E0192012932D0FE
:10C79000022932D0032901D004292AD100200B908C
:10C7A000204640300A9016300790401E25468035BE
:10C7B00005902F480088FCF79BFAC01E82B26A835E
:10C7C000771C0B98BA4227D200281CD001998020F0
:10C7D00008430A994875288B8018401E288381B227
:10C7E0000398521E09180798FAF7AEFD6B8B26E0E6
:10C7F00020480FB0F0BD2A2100E029213346039ADA
:10C800000C98A847F5E701200B90019940200843B8
:10C810000A9948750020E1E700281DD00199C02041
:10C8200008430A994875288B8018401E2883298B55
:10C830000398324609180798FAF786FDBBB2F01A3A
:10C84000401C86B26768059A01990C98B847002881
:10C85000CFD1002EADD1CCE701200B900A9A0198E0
:10C86000002150752983E2E798CBFF1FFFFF0000EE
:10C870003C7AFF1F1120000008B5002069460870AF
:10C88000A021484304494018C168002901D06846E6
:10C890008847002008BD000098CBFF1FF0B5164E5A
:10C8A000074670688BB0144600281AD004226846E8
:10C8B000027404AD22461130FAF746FD1021684695
:10C8C00001703901491C4170641C019504810020EC
:10C8D0000390102374686A462B210848A0470BB0C8
:10C8E000F0BD07A0FAF71EFD0FA0FAF71BFD0F48D9
:10C8F0000020C0460E48F2E798CBFF1FB87CFF1F10
:10C90000426561636F6E20626561726572206E6F51
:10C910007420757020666F72206F70657261746923
:10C920006F6E2E0A000000000D0A0000247AFF1F1F
:10C9300014200000F0B5134F064678688BB01446FB
:10C94000002803D0022E04D0012203E00E480BB0D1
:10C95000F0BD00226D462A70681C2246FAF7F4FCEE
:10C960001021684601753101491C4175641C06950A
:10C9700084830020089010237C6805AA2B2103489B
:10C98000A047E4E798CBFF1F14200000B87CFF1FEE
:10C9900008B5002269460A70A0214A43044951188B
:10C9A0000A69002A02D0014668469047002008BD67
:10C9B00098CBFF1F10B588B004460A4AFF201070BC
:10C9C00000206B46009018711C72074A0392074AB8
:10C9D000069204902F229A820A466946FFF746FC87
:10C9E00008B010BD707DFF1FC14D0211EC26031170
:10C9F00030B5154687B002460B480C460090002023
:10CA0000694608710A72094903910949069104901F
:10CA1000012269468A822246FFF728FC05494D60BB
:10CA200022880A8007B030BD01100000257B02116A
:10CA3000E82703119C7DFF1FFFB5344F344D387834
:10CA400089B00E4600280FD1B0212846FAF708FB1E
:10CA50000020FF215822424352194032401C51719C
:10CA60000228F7D301203870002458206043401971
:10CA7000C06C002802D0641C022CF6D3022C1FD3F9
:10CA8000244C5C2124A0FAF7FBFC002805D05C2193
:10CA900021A0FAF7F5FC401C00E01FA02A49324D06
:10CAA0000346009129A229460120FCF7AFFC23464A
:10CAB0002EA229460120FCF7A9FC20460DB0F0BDAE
:10CAC00002200190002069460872099A0A733649CB
:10CAD000049136490591364907910B2269460A832C
